{
  "contractName": "Account",
  "abi": [
    {
      "inputs": [],
      "payable": false,
      "stateMutability": "nonpayable",
      "type": "constructor"
    },
    {
      "constant": false,
      "inputs": [
        {
          "name": "context",
          "type": "string"
        },
        {
          "name": "_private",
          "type": "bool"
        }
      ],
      "name": "publish",
      "outputs": [],
      "payable": false,
      "stateMutability": "nonpayable",
      "type": "function"
    },
    {
      "constant": false,
      "inputs": [
        {
          "name": "blogId",
          "type": "uint256"
        }
      ],
      "name": "deleteBlog",
      "outputs": [],
      "payable": false,
      "stateMutability": "nonpayable",
      "type": "function"
    },
    {
      "constant": false,
      "inputs": [
        {
          "name": "blogId",
          "type": "uint256"
        }
      ],
      "name": "like",
      "outputs": [],
      "payable": false,
      "stateMutability": "nonpayable",
      "type": "function"
    },
    {
      "constant": false,
      "inputs": [
        {
          "name": "blogId",
          "type": "uint256"
        }
      ],
      "name": "dislike",
      "outputs": [],
      "payable": false,
      "stateMutability": "nonpayable",
      "type": "function"
    },
    {
      "constant": true,
      "inputs": [
        {
          "name": "blogId",
          "type": "uint256"
        }
      ],
      "name": "getBlog",
      "outputs": [
        {
          "name": "context",
          "type": "string"
        },
        {
          "name": "publishTime",
          "type": "uint256"
        },
        {
          "name": "likeNum",
          "type": "uint256"
        },
        {
          "name": "dislikeNum",
          "type": "uint256"
        }
      ],
      "payable": false,
      "stateMutability": "view",
      "type": "function"
    },
    {
      "constant": true,
      "inputs": [],
      "name": "getBlogNum",
      "outputs": [
        {
          "name": "_blogNum",
          "type": "uint256"
        }
      ],
      "payable": false,
      "stateMutability": "view",
      "type": "function"
    },
    {
      "constant": false,
      "inputs": [
        {
          "name": "name",
          "type": "string"
        }
      ],
      "name": "follow",
      "outputs": [],
      "payable": false,
      "stateMutability": "nonpayable",
      "type": "function"
    },
    {
      "constant": false,
      "inputs": [
        {
          "name": "name",
          "type": "string"
        }
      ],
      "name": "nofollow",
      "outputs": [],
      "payable": false,
      "stateMutability": "nonpayable",
      "type": "function"
    },
    {
      "constant": true,
      "inputs": [
        {
          "name": "name",
          "type": "string"
        }
      ],
      "name": "isFollow",
      "outputs": [
        {
          "name": "isf",
          "type": "bool"
        }
      ],
      "payable": false,
      "stateMutability": "view",
      "type": "function"
    },
    {
      "constant": true,
      "inputs": [
        {
          "name": "randNonce",
          "type": "uint256"
        }
      ],
      "name": "getRandomTargetName",
      "outputs": [
        {
          "name": "targetname",
          "type": "string"
        }
      ],
      "payable": false,
      "stateMutability": "view",
      "type": "function"
    }
  ],
  "bytecode": "0x608060405234801561001057600080fd5b50600060018190555033600260006101000a81548173ffffffffffffffffffffffffffffffffffffffff021916908373ffffffffffffffffffffffffffffffffffffffff16021790555061123e806100696000396000f3fe6080604052600436106100a4576000357c0100000000000000000000000000000000000000000000000000000000900463ffffffff1680631e4120bf146100a957806321bddbda1461015d578063390deb1714610231578063618f8bbb146102f9578063af21c8b214610334578063c02defac1461036f578063d4868baa14610437578063d7410f5714610500578063e82935da146105e0578063f9b052cd1461061b575b600080fd5b3480156100b557600080fd5b506100e2600480360360208110156100cc57600080fd5b8101908080359060200190929190505050610646565b6040518080602001828103825283818151815260200191508051906020019080838360005b83811015610122578082015181840152602081019050610107565b50505050905090810190601f16801561014f5780820380516001836020036101000a031916815260200191505b509250505060405180910390f35b34801561016957600080fd5b5061022f6004803603604081101561018057600080fd5b810190808035906020019064010000000081111561019d57600080fd5b8201836020820111156101af57600080fd5b803590602001918460018302840111640100000000831117156101d157600080fd5b91908080601f016020809104026020016040519081016040528093929190818152602001838380828437600081840152601f19601f82011690508083019250505050505050919291929080351515906020019092919050505061078c565b005b34801561023d57600080fd5b506102f76004803603602081101561025457600080fd5b810190808035906020019064010000000081111561027157600080fd5b82018360208201111561028357600080fd5b803590602001918460018302840111640100000000831117156102a557600080fd5b91908080601f016020809104026020016040519081016040528093929190818152602001838380828437600081840152601f19601f8201169050808301925050505050505091929192905050506108c0565b005b34801561030557600080fd5b506103326004803603602081101561031c57600080fd5b8101908080359060200190929190505050610902565b005b34801561034057600080fd5b5061036d6004803603602081101561035757600080fd5b810190808035906020019092919050505061093a565b005b34801561037b57600080fd5b506104356004803603602081101561039257600080fd5b81019080803590602001906401000000008111156103af57600080fd5b8201836020820111156103c157600080fd5b803590602001918460018302840111640100000000831117156103e357600080fd5b91908080601f016020809104026020016040519081016040528093929190818152602001838380828437600081840152601f19601f8201169050808301925050505050505091929192905050506109f8565b005b34801561044357600080fd5b506104706004803603602081101561045a57600080fd5b8101908080359060200190929190505050610c8c565b6040518080602001858152602001848152602001838152602001828103825286818151815260200191508051906020019080838360005b838110156104c25780820151818401526020810190506104a7565b50505050905090810190601f1680156104ef5780820380516001836020036101000a031916815260200191505b509550505050505060405180910390f35b34801561050c57600080fd5b506105c66004803603602081101561052357600080fd5b810190808035906020019064010000000081111561054057600080fd5b82018360208201111561055257600080fd5b8035906020019184600183028401116401000000008311171561057457600080fd5b91908080601f016020809104026020016040519081016040528093929190818152602001838380828437600081840152601f19601f820116905080830192505050505050509192919290505050610e27565b604051808215151515815260200191505060405180910390f35b3480156105ec57600080fd5b506106196004803603602081101561060357600080fd5b8101908080359060200190929190505050611004565b005b34801561062757600080fd5b5061063061103c565b6040518082815260200191505060405180910390f35b60606000600380549050423385604051602001808481526020018373ffffffffffffffffffffffffffffffffffffffff1673ffffffffffffffffffffffffffffffffffffffff166c01000000000000000000000000028152601401828152602001935050505060405160208183030381529060405280519060200120600190048115156106cf57fe5b0690506003818154811015156106e157fe5b906000526020600020018054600181600116156101000203166002900480601f01602080910402602001604051908101604052809291908181526020018280546001816001161561010002031660029004801561077f5780601f106107545761010080835404028352916020019161077f565b820191906000526020600020905b81548152906001019060200180831161076257829003601f168201915b5050505050915050919050565b600260009054906101000a900473ffffffffffffffffffffffffffffffffffffffff1673ffffffffffffffffffffffffffffffffffffffff163373ffffffffffffffffffffffffffffffffffffffff161415156107e857600080fd5b60648251111515156107f957600080fd5b426000806001548152602001908152602001600020600101819055508160008060015481526020019081526020016000206000019080519060200190610840929190611046565b506000806000600154815260200190815260200160002060020181905550600080600060015481526020019081526020016000206003018190555080600080600154815260200190815260200160002060040160006101000a81548160ff0219169083151502179055506001600081548092919060010191905055505050565b60038190806001815401808255809150509060018203906000526020600020016000909192909190915090805190602001906108fd929190611046565b505050565b6001548110151561091257600080fd5b6000808281526020019081526020016000206003016000815480929190600101919050555050565b600260009054906101000a900473ffffffffffffffffffffffffffffffffffffffff1673ffffffffffffffffffffffffffffffffffffffff163373ffffffffffffffffffffffffffffffffffffffff1614151561099657600080fd5b6040805190810160405280600b81526020017f4064656c657465426c6f6700000000000000000000000000000000000000000081525060008083815260200190815260200160002060000190805190602001906109f4929190611046565b5050565b600080905060008090505b600380549050811015610bcb576060600382815481101515610a2157fe5b906000526020600020018054600181600116156101000203166002900480601f016020809104026020016040519081016040528092919081815260200182805460018160011615610100020316600290048015610abf5780601f10610a9457610100808354040283529160200191610abf565b820191906000526020600020905b815481529060010190602001808311610aa257829003601f168201915b50505050509050836040516020018082805190602001908083835b602083101515610aff5780518252602082019150602081019050602083039250610ada565b6001836020036101000a03801982511681845116808217855250505050505090500191505060405160208183030381529060405280519060200120816040516020018082805190602001908083835b602083101515610b735780518252602082019150602081019050602083039250610b4e565b6001836020036101000a038019825116818451168082178552505050505050905001915050604051602081830303815290604052805190602001201415610bbd5781925050610bcb565b508080600101915050610a03565b5060008190505b600160038054905003811015610c4457600360018201815481101515610bf457fe5b90600052602060002001600382815481101515610c0d57fe5b906000526020600020019080546001816001161561010002031660029004610c369291906110c6565b508080600101915050610bd2565b506003600160038054905003815481101515610c5c57fe5b906000526020600020016000610c72919061114d565b6003805480919060019003610c879190611195565b505050565b6060600080600060015485101515610ca357600080fd5b60008086815260200190815260200160002060040160009054906101000a900460ff1615610d2857600260009054906101000a900473ffffffffffffffffffffffffffffffffffffffff1673ffffffffffffffffffffffffffffffffffffffff163373ffffffffffffffffffffffffffffffffffffffff16141515610d2757600080fd5b5b6000808681526020019081526020016000206000018054600181600116156101000203166002900480601f016020809104026020016040519081016040528092919081815260200182805460018160011615610100020316600290048015610dd15780601f10610da657610100808354040283529160200191610dd1565b820191906000526020600020905b815481529060010190602001808311610db457829003601f168201915b505050505093506000808681526020019081526020016000206001015492506000808681526020019081526020016000206002015491506000808681526020019081526020016000206003015490509193509193565b600080600090505b600380549050811015610ff9576060600382815481101515610e4d57fe5b906000526020600020018054600181600116156101000203166002900480601f016020809104026020016040519081016040528092919081815260200182805460018160011615610100020316600290048015610eeb5780601f10610ec057610100808354040283529160200191610eeb565b820191906000526020600020905b815481529060010190602001808311610ece57829003601f168201915b50505050509050836040516020018082805190602001908083835b602083101515610f2b5780518252602082019150602081019050602083039250610f06565b6001836020036101000a03801982511681845116808217855250505050505090500191505060405160208183030381529060405280519060200120816040516020018082805190602001908083835b602083101515610f9f5780518252602082019150602081019050602083039250610f7a565b6001836020036101000a038019825116818451168082178552505050505050905001915050604051602081830303815290604052805190602001201415610feb57600192505050610fff565b508080600101915050610e2f565b50600090505b919050565b6001548110151561101457600080fd5b6000808281526020019081526020016000206002016000815480929190600101919050555050565b6000600154905090565b828054600181600116156101000203166002900490600052602060002090601f016020900481019282601f1061108757805160ff19168380011785556110b5565b828001600101855582156110b5579182015b828111156110b4578251825591602001919060010190611099565b5b5090506110c291906111c1565b5090565b828054600181600116156101000203166002900490600052602060002090601f016020900481019282601f106110ff578054855561113c565b8280016001018555821561113c57600052602060002091601f016020900482015b8281111561113b578254825591600101919060010190611120565b5b50905061114991906111c1565b5090565b50805460018160011615610100020316600290046000825580601f106111735750611192565b601f01602090049060005260206000209081019061119191906111c1565b5b50565b8154818355818111156111bc578183600052602060002091820191016111bb91906111e6565b5b505050565b6111e391905b808211156111df5760008160009055506001016111c7565b5090565b90565b61120f91905b8082111561120b5760008181611202919061114d565b506001016111ec565b5090565b9056fea165627a7a723058206fdc74751705d9da00a25adac41ed83b2e553a322e38187320148698361adbe10029",
  "source": "pragma solidity ^0.5.0;\n\ncontract Account {\n  struct Blog\n  {\n    string context;\n    uint publishTime;\n    uint likeNum;\n    uint dislikeNum;\n    bool _private;\n  }\n\n  mapping (uint => Blog) blogs;\n  uint blogNum;\n  address owner;\n  string[] targets;\n  \n  modifier onlyOwner\n  {\n    require(msg.sender == owner);\n    _;\n  }\n\n  constructor() public\n  {\n    blogNum = 0;\n    owner = msg.sender;\n  }\n\n  function publish (string memory context, bool _private) public onlyOwner\n  {\n    require(bytes(context).length <= 100);\n\n    blogs[blogNum].publishTime = now;\n    blogs[blogNum].context = context;\n    blogs[blogNum].likeNum = 0;\n    blogs[blogNum].dislikeNum = 0;\n    //default is public\n    blogs[blogNum]._private = _private; \n    blogNum++;\n  }\n  \n  function deleteBlog(uint blogId) public onlyOwner\n  {\n      blogs[blogId].context = \"@deleteBlog\";\n  }\n\n  function like (uint blogId) public \n  {\n    require(blogId < blogNum);\n    blogs[blogId].likeNum++;\n  }\n\n  function dislike (uint blogId) public\n  {\n    require(blogId < blogNum);\n    blogs[blogId].dislikeNum++;\n  }\n\n  function getBlog (uint blogId) public view returns (string memory context, uint publishTime, uint likeNum, uint dislikeNum)\n  {\n    require(blogId < blogNum);\n\n    if(blogs[blogId]._private)\n      require(msg.sender == owner);\n\n    context = blogs[blogId].context;\n    publishTime = blogs[blogId].publishTime;\n    likeNum = blogs[blogId].likeNum;\n    dislikeNum = blogs[blogId].dislikeNum;\n  }\n\n  function getBlogNum() public view returns (uint _blogNum) \n  {\n    return blogNum;\n  } \n  \n  function follow(string memory name) public\n  {\n      targets.push(name);\n  }\n  \n  function nofollow(string memory name) public\n  {\n        uint index = 0;\n        for(uint i =0; i < targets.length; i++)\n        {\n            string memory  t = targets[i];\n            // if(keccak256(t) == keccak256(name))\n            if(keccak256(abi.encodePacked(t)) == keccak256(abi.encodePacked(name)))\n            // if( t == name) \n            {\n                index = i;\n                break;\n            }\n        }\n        \n        for(uint j = index; j < targets.length - 1; j++)\n        {\n            targets[j] = targets[j + 1];\n        }\n        \n        delete targets[targets.length - 1];\n        targets.length--;\n  }\n\n    function isFollow(string memory name) public view returns(bool isf)\n    {\n        for(uint i =0; i < targets.length; i++)\n        {\n            string memory  t = targets[i];\n            if(keccak256(abi.encodePacked(t)) == keccak256(abi.encodePacked(name)))\n            // if( t == name)\n                return true;\n        }\n        return false;\n    }\n  \n  function getRandomTargetName(uint randNonce) public view returns (string memory targetname)\n  {\n      uint random = uint(keccak256(abi.encodePacked( now,msg.sender,randNonce)))%targets.length;\n      \n      return targets[random];\n  }\n}\n",
  "sourcePath": "/Users/guofes/Desktop/bishe/test/contracts/Account.sol",
  "compiler": {
    "name": "solc",
    "version": "0.5.0+commit.1d4f565a.Emscripten.clang"
  },
  "schemaVersion": "3.0.3",
  "updatedAt": "2019-05-03T09:03:43.396Z",
  "devdoc": {
    "methods": {}
  },
  "userdoc": {
    "methods": {}
  }
}