{
  "contractName": "MyBlog",
  "abi": [
    {
      "inputs": [],
      "payable": false,
      "stateMutability": "nonpayable",
      "type": "constructor",
      "signature": "constructor"
    },
    {
      "constant": false,
      "inputs": [
        {
          "name": "name",
          "type": "string"
        }
      ],
      "name": "register",
      "outputs": [],
      "payable": false,
      "stateMutability": "nonpayable",
      "type": "function",
      "signature": "0xf2c298be"
    },
    {
      "constant": false,
      "inputs": [
        {
          "name": "name",
          "type": "string"
        },
        {
          "name": "add",
          "type": "address"
        }
      ],
      "name": "setDeployedAdd",
      "outputs": [],
      "payable": false,
      "stateMutability": "nonpayable",
      "type": "function",
      "signature": "0xf290e006"
    },
    {
      "constant": true,
      "inputs": [
        {
          "name": "name",
          "type": "string"
        }
      ],
      "name": "getDeployedAdd",
      "outputs": [
        {
          "name": "contractAdd",
          "type": "address"
        }
      ],
      "payable": false,
      "stateMutability": "view",
      "type": "function",
      "signature": "0x6b9f38e5"
    },
    {
      "constant": true,
      "inputs": [],
      "name": "getAccountNum",
      "outputs": [
        {
          "name": "_accountNum",
          "type": "uint256"
        }
      ],
      "payable": false,
      "stateMutability": "view",
      "type": "function",
      "signature": "0x8e201593"
    },
    {
      "constant": true,
      "inputs": [
        {
          "name": "name",
          "type": "string"
        }
      ],
      "name": "getAddByName",
      "outputs": [
        {
          "name": "add",
          "type": "address"
        }
      ],
      "payable": false,
      "stateMutability": "view",
      "type": "function",
      "signature": "0x5c999eb8"
    },
    {
      "constant": true,
      "inputs": [
        {
          "name": "add",
          "type": "address"
        }
      ],
      "name": "getNameByAdd",
      "outputs": [
        {
          "name": "name",
          "type": "string"
        }
      ],
      "payable": false,
      "stateMutability": "view",
      "type": "function",
      "signature": "0x12711b69"
    },
    {
      "constant": true,
      "inputs": [
        {
          "name": "randNonce",
          "type": "uint256"
        }
      ],
      "name": "randomGetName",
      "outputs": [
        {
          "name": "name",
          "type": "string"
        }
      ],
      "payable": false,
      "stateMutability": "view",
      "type": "function",
      "signature": "0x95aa658d"
    }
  ],
  "bytecode": "0x608060405234801561001057600080fd5b5033600560006101000a81548173ffffffffffffffffffffffffffffffffffffffff021916908373ffffffffffffffffffffffffffffffffffffffff1602179055506000600381905550610e0a806100696000396000f3fe608060405260043610610083576000357c0100000000000000000000000000000000000000000000000000000000900463ffffffff16806312711b69146100885780635c999eb8146101525780636b9f38e51461025a5780638e2015931461036257806395aa658d1461038d578063f290e00614610441578063f2c298be14610529575b600080fd5b34801561009457600080fd5b506100d7600480360360208110156100ab57600080fd5b81019080803573ffffffffffffffffffffffffffffffffffffffff1690602001909291905050506105f1565b6040518080602001828103825283818151815260200191508051906020019080838360005b838110156101175780820151818401526020810190506100fc565b50505050905090810190601f1680156101445780820380516001836020036101000a031916815260200191505b509250505060405180910390f35b34801561015e57600080fd5b506102186004803603602081101561017557600080fd5b810190808035906020019064010000000081111561019257600080fd5b8201836020820111156101a457600080fd5b803590602001918460018302840111640100000000831117156101c657600080fd5b91908080601f016020809104026020016040519081016040528093929190818152602001838380828437600081840152601f19601f8201169050808301925050505050505091929192905050506106d1565b604051808273ffffffffffffffffffffffffffffffffffffffff1673ffffffffffffffffffffffffffffffffffffffff16815260200191505060405180910390f35b34801561026657600080fd5b506103206004803603602081101561027d57600080fd5b810190808035906020019064010000000081111561029a57600080fd5b8201836020820111156102ac57600080fd5b803590602001918460018302840111640100000000831117156102ce57600080fd5b91908080601f016020809104026020016040519081016040528093929190818152602001838380828437600081840152601f19601f820116905080830192505050505050509192919290505050610766565b604051808273ffffffffffffffffffffffffffffffffffffffff1673ffffffffffffffffffffffffffffffffffffffff16815260200191505060405180910390f35b34801561036e57600080fd5b506103776107fb565b6040518082815260200191505060405180910390f35b34801561039957600080fd5b506103c6600480360360208110156103b057600080fd5b8101908080359060200190929190505050610805565b6040518080602001828103825283818151815260200191508051906020019080838360005b838110156104065780820151818401526020810190506103eb565b50505050905090810190601f1680156104335780820380516001836020036101000a031916815260200191505b509250505060405180910390f35b34801561044d57600080fd5b506105276004803603604081101561046457600080fd5b810190808035906020019064010000000081111561048157600080fd5b82018360208201111561049357600080fd5b803590602001918460018302840111640100000000831117156104b557600080fd5b91908080601f016020809104026020016040519081016040528093929190818152602001838380828437600081840152601f19601f820116905080830192505050505050509192919290803573ffffffffffffffffffffffffffffffffffffffff169060200190929190505050610948565b005b34801561053557600080fd5b506105ef6004803603602081101561054c57600080fd5b810190808035906020019064010000000081111561056957600080fd5b82018360208201111561057b57600080fd5b8035906020019184600183028401116401000000008311171561059d57600080fd5b91908080601f016020809104026020016040519081016040528093929190818152602001838380828437600081840152601f19601f820116905080830192505050505050509192919290505050610abb565b005b60606000808373ffffffffffffffffffffffffffffffffffffffff1673ffffffffffffffffffffffffffffffffffffffff1681526020019081526020016000208054600181600116156101000203166002900480601f0160208091040260200160405190810160405280929190818152602001828054600181600116156101000203166002900480156106c55780601f1061069a576101008083540402835291602001916106c5565b820191906000526020600020905b8154815290600101906020018083116106a857829003601f168201915b50505050509050919050565b60006001826040518082805190602001908083835b60208310151561070b57805182526020820191506020810190506020830392506106e6565b6001836020036101000a038019825116818451168082178552505050505050905001915050908152602001604051809103902060009054906101000a900473ffffffffffffffffffffffffffffffffffffffff169050919050565b60006002826040518082805190602001908083835b6020831015156107a0578051825260208201915060208101905060208303925061077b565b6001836020036101000a038019825116818451168082178552505050505050905001915050908152602001604051809103902060009054906101000a900473ffffffffffffffffffffffffffffffffffffffff169050919050565b6000600354905090565b60606000600354423385604051602001808481526020018373ffffffffffffffffffffffffffffffffffffffff1673ffffffffffffffffffffffffffffffffffffffff166c010000000000000000000000000281526014018281526020019350505050604051602081830303815290604052805190602001206001900481151561088b57fe5b06905060048181548110151561089d57fe5b906000526020600020018054600181600116156101000203166002900480601f01602080910402602001604051908101604052809291908181526020018280546001816001161561010002031660029004801561093b5780601f106109105761010080835404028352916020019161093b565b820191906000526020600020905b81548152906001019060200180831161091e57829003601f168201915b5050505050915050919050565b6001826040518082805190602001908083835b602083101515610980578051825260208201915060208101905060208303925061095b565b6001836020036101000a038019825116818451168082178552505050505050905001915050908152602001604051809103902060009054906101000a900473ffffffffffffffffffffffffffffffffffffffff1673ffffffffffffffffffffffffffffffffffffffff163373ffffffffffffffffffffffffffffffffffffffff16141515610a0d57600080fd5b806002836040518082805190602001908083835b602083101515610a465780518252602082019150602081019050602083039250610a21565b6001836020036101000a038019825116818451168082178552505050505050905001915050908152602001604051809103902060006101000a81548173ffffffffffffffffffffffffffffffffffffffff021916908373ffffffffffffffffffffffffffffffffffffffff1602179055505050565b6000339050600073ffffffffffffffffffffffffffffffffffffffff166001836040518082805190602001908083835b602083101515610b105780518252602082019150602081019050602083039250610aeb565b6001836020036101000a038019825116818451168082178552505050505050905001915050908152602001604051809103902060009054906101000a900473ffffffffffffffffffffffffffffffffffffffff1673ffffffffffffffffffffffffffffffffffffffff16141515610b8657600080fd5b60008060008373ffffffffffffffffffffffffffffffffffffffff1673ffffffffffffffffffffffffffffffffffffffff168152602001908152602001600020805460018160011615610100020316600290049050141515610be757600080fd5b816000808373ffffffffffffffffffffffffffffffffffffffff1673ffffffffffffffffffffffffffffffffffffffff1681526020019081526020016000209080519060200190610c39929190610d39565b50806001836040518082805190602001908083835b602083101515610c735780518252602082019150602081019050602083039250610c4e565b6001836020036101000a038019825116818451168082178552505050505050905001915050908152602001604051809103902060006101000a81548173ffffffffffffffffffffffffffffffffffffffff021916908373ffffffffffffffffffffffffffffffffffffffff1602179055506003600081548092919060010191905055506004829080600181540180825580915050906001820390600052602060002001600090919290919091509080519060200190610d33929190610d39565b50505050565b828054600181600116156101000203166002900490600052602060002090601f016020900481019282601f10610d7a57805160ff1916838001178555610da8565b82800160010185558215610da8579182015b82811115610da7578251825591602001919060010190610d8c565b5b509050610db59190610db9565b5090565b610ddb91905b80821115610dd7576000816000905550600101610dbf565b5090565b9056fea165627a7a723058200ca7d0d6b461c1e9845504a8e3be6d0e4ca9f027058ecb96a507edfd2ccfb4d30029",
  "source": "pragma solidity ^0.5.0;\n\ncontract MyBlog {\n  \n  mapping (address => string) nickNames;\n  mapping (string => address) registerNames;\n  mapping (string => address) deployedContracts;\n  uint totalAccounts;\n  string []names;\n\n  address admin;\n  modifier onlyRegistryAdmin \n  {\n    require(msg.sender == admin);\n    _;\n  }\n\n  constructor() public\n  {\n    admin = msg.sender;\n    totalAccounts = 0;\n  }\n\n  function register(string memory name) public\n  {\n    address add = msg.sender;\n    require(registerNames[name] == address(0));\n    require(bytes(nickNames[add]).length == 0);\n\n    nickNames[add] = name;\n    registerNames[name] = add;\n    totalAccounts++;\n    names.push(name);\n  }\n\n  function setDeployedAdd(string memory name, address add) public\n  {\n    require (msg.sender == registerNames[name]);\n    deployedContracts[name] = add;\n  }\n\n  //can used by login or someother want to get by others name\n  function getDeployedAdd(string memory name) public view returns (address contractAdd)\n  {\n    return deployedContracts[name];\n  }\n\n  function getAccountNum() public view returns (uint _accountNum) \n  {\n    return totalAccounts;\n  } \n\n  function getAddByName(string memory name) public view returns (address add)\n  {\n    return registerNames[name];\n  }\n\n  function getNameByAdd(address add) public view returns (string memory name)\n  {\n    return nickNames[add];\n  }\n  \n  function randomGetName(uint randNonce) public view returns (string memory name)\n  {\n      uint random = uint(keccak256(abi.encodePacked(now,msg.sender,randNonce)))%totalAccounts;\n      \n      return names[random];\n  }\n  \n}\n",
  "sourcePath": "/Users/guofes/Desktop/bishe/test/contracts/MyBlog.sol",
  "compiler": {
    "name": "solc",
    "version": "0.5.0+commit.1d4f565a.Emscripten.clang"
  },
  "schemaVersion": "3.0.3",
  "updatedAt": "2019-05-03T09:04:30.813Z",
  "devdoc": {
    "methods": {}
  },
  "userdoc": {
    "methods": {}
  }
}